:100000000C94B1000C94CE000C94CE000C94CE0055
:100010000C94E2000C94E2000C94CE000C94CE0000
:100020000C94CE000C94CE000C94CE000C94CE0018
:100030000C94E6020C94CE000C94CE000C94CE00EE
:100040000C94CE000C94CE000C94CE000C94CE00F8
:100050000C94CE000C94CE000C94CE000C94CE00E8
:100060000C94CE000C94CE0000407A10F35A00A0FD
:10007000724E18090010A5D4E80000E87648170071
:1000800000E40B54020000CA9A3B000000E1F505B1
:10009000000080969800000040420F000000A086FB
:1000A00001000000102700000000E803000000002D
:1000B0006400000000000A000000000001000000D1
:1000C00000002C76D888DC674F0823DFC1DFAE59EB
:1000D000E1B1B796E5E3E453C63AE651997696E87E
:1000E000E6C28426EB898C9B62ED407C6FFCEFBC02
:1000F0009C9F40F2BAA56FA5F490055A2AF75C932D
:100100006B6CF9676DC11BFCE0E40D47FEF520E662
:10011000B500D0ED902E0300943577050080841E45
:10012000080000204E0A000000C80C333333330FA0
:10013000986E12831141EF8D2114893BE65516CF3D
:10014000FEE6DB18D1844B381BF77C1D901DA4BB49
:10015000E424203284725E228100C9F124ECA1E5FE
:100160003D2711241FBECFEFD8E0DEBFCDBF11E089
:10017000A0E0B1E0EEE2F9E102C005900D92A831F5
:10018000B107D9F711E0A8E1B1E001C01D92A13497
:10019000B107E1F70E9488090C94950C0C940000BB
:1001A0009093C5008093C40088E18093C1008EE0E5
:1001B0008093C20008959091C00095FFFCCF80937A
:1001C000C60008951F920F920FB60F9211242F931D
:1001D0003F934F935F938F939F938091840090916F
:1001E0008500909331018093300126B180916C009D
:1001F00090913501822389278093340129B1809120
:100200006D0090913301822389278093320196B14A
:1002100080916C0089238093350199B180916D00A4
:100220008923809333018091340185FF35C080910B
:10023000350185FF09C08091300190913101909383
:1002400021018093200128C020913001309131019B
:1002500080912001909121012817390748F0809161
:1002600030019091310120912001309121010EC087
:10027000409186005091870020912001309121010A
:100280008091300190913101840F951F821B930B57
:1002900090930101809300018091340184FF35C067
:1002A0008091350184FF09C0809130019091310126
:1002B000909323018093220128C020913001309136
:1002C000310180912201909123012817390748F0CC
:1002D00080913001909131012091220130912301D0
:1002E0000EC04091860050918700209122013091EC
:1002F00023018091300190913101840F951F821B61
:10030000930B90930301809302018091340183FF4A
:1003100035C08091350183FF09C0809130019091F3
:100320003101909325018093240128C02091300150
:1003300030913101809124019091250128173907CE
:1003400048F0809130019091310120912401309149
:1003500025010EC040918600509187002091240114
:10036000309125018091300190913101840F951FCA
:10037000821B930B909305018093040180913401BB
:1003800082FF35C08091350182FF09C08091300124
:1003900090913101909327018093260128C02091EC
:1003A0003001309131018091260190912701281769
:1003B000390748F080913001909131012091260158
:1003C000309127010EC04091860050918700209106
:1003D0002601309127018091300190913101840FE5
:1003E000951F821B930B90930701809306018091C8
:1003F000340181FF35C08091350181FF09C08091B2
:10040000300190913101909329018093280128C0F7
:100410002091300130913101809128019091290182
:100420002817390748F080913001909131012091CF
:100430002801309129010EC040918600509187001B
:100440002091280130912901809130019091310152
:10045000840F951F821B930B9093090180930801D1
:100460008091340180FF35C08091350180FF09C043
:10047000809130019091310190932B0180932A015A
:1004800028C0209130013091310180912A01909152
:100490002B012817390748F08091300190913101E4
:1004A00020912A0130912B010EC04091860050917D
:1004B000870020912A0130912B0180913001909189
:1004C0003101840F951F821B930B90930B01809336
:1004D0000A018091320183FF35C08091330183FF8F
:1004E00009C0809130019091310190932D0180934A
:1004F0002C0128C0209130013091310180912C01D4
:1005000090912D012817390748F080913001909182
:10051000310120912C0130912D010EC040918600B7
:100520005091870020912C0130912D018091300154
:1005300090913101840F951F821B930B90930D01B5
:1005400080930C018091320184FF35C0809133018A
:1005500084FF09C0809130019091310190932F0167
:1005600080932E0128C0209130013091310180917B
:100570002E0190912F012817390748F08091300102
:100580009091310120912E0130912F010EC04091A8
:1005900086005091870020912E0130912F0180918B
:1005A000300190913101840F951F821B930B909322
:1005B0000F0180930E019F918F915F914F913F9119
:1005C0002F910F900FBE0F901F9018951F920F92B2
:1005D0000FB60F9211240F931F932F933F934F93B6
:1005E0005F936F937F938F939F93AF93BF93EF939B
:1005F000FF93F89480911F018F5F80931F0180917A
:100600001F01823008F479C28091000190910101AC
:1006100090931D0180931C0160911C0170911D013C
:1006200080E090E00E94E20720E030E44CE954E4EE
:100630000E943F0720E030E040E450E40E940F07B2
:10064000AB01BC01409318015093190160931A014A
:1006500070931B01609118017091190180911A012A
:1006600090911B0107E311E022E040E00E94210A83
:100670001092360107C00E94DB00809136018F5F27
:1006800080933601E0913601F0E0E95CFE4F808115
:100690008111F1CF89E00E94DB00809102019091ED
:1006A000030190931D0180931C0160911C017091C6
:1006B0001D0180E090E00E94E20720E030E44CE978
:1006C00054E40E943F0720E030E040E450E40E9400
:1006D0000F07AB01BC0140931801509319016093BF
:1006E0001A0170931B01609118017091190180919A
:1006F0001A0190911B0107E311E022E040E00E9403
:10070000210A1092360107C00E94DB008091360159
:100710008F5F80933601E0913601F0E0E95CFE4F97
:1007200080818111F1CF89E00E94DB00809104017A
:100730009091050190931D0180931C0160911C0113
:1007400070911D0180E090E00E94E20720E030E41B
:100750004CE954E40E943F0720E030E040E450E4DC
:100760000E940F07AB01BC0140931801509319017F
:1007700060931A0170931B01609118017091190127
:1007800080911A0190911B0107E311E022E040E003
:100790000E94210A1092360107C00E94DB0080915E
:1007A00036018F5F80933601E0913601F0E0E95C1D
:1007B000FE4F80818111F1CF89E00E94DB008091A2
:1007C00006019091070190931D0180931C01609197
:1007D0001C0170911D0180E090E00E94E20720E082
:1007E00030E44CE954E40E943F0720E030E040E46C
:1007F00050E40E940F07AB01BC01409318015093D5
:10080000190160931A0170931B0160911801709196
:10081000190180911A0190911B0107E311E022E078
:1008200040E00E94210A1092360107C00E94DB00BE
:10083000809136018F5F80933601E0913601F0E0C0
:10084000E95CFE4F80818111F1CF89E00E94DB00DD
:10085000809108019091090190931D0180931C01E2
:1008600060911C0170911D0180E090E00E94E20700
:1008700020E030E44CE954E40E943F0720E030E0FF
:1008800040E450E40E940F07AB01BC014093180103
:100890005093190160931A0170931B016091180124
:1008A0007091190180911A0190911B0107E311E0E9
:1008B00022E040E00E94210A1092360107C00E9407
:1008C000DB00809136018F5F80933601E091360125
:1008D000F0E0E95CFE4F80818111F1CF89E00E9458
:1008E000DB0080910A0190910B0190931D01809390
:1008F0001C0160911C0170911D0180E090E00E943C
:10090000E20720E030E44CE954E40E943F0720E095
:1009100030E040E450E40E940F07AB01BC0140937B
:1009200018015093190160931A0170931B01609193
:1009300018017091190180911A0190911B0107E330
:1009400011E022E040E00E94210A1092360107C027
:100950000E94DB00809136018F5F80933601E09129
:100960003601F0E0E95CFE4F80818111F1CF89E032
:100970000E94DB0080910C0190910D0190931D016C
:1009800080931C0160911C0170911D0180E090E03A
:100990000E94E20720E030E44CE954E40E943F0763
:1009A00020E030E040E450E40E940F07AB01BC01BE
:1009B000409318015093190160931A0170931B0121
:1009C000609118017091190180911A0190911B0199
:1009D00007E311E022E040E00E94210A1092360174
:1009E00007C00E94DB00809136018F5F8093360143
:1009F000E0913601F0E0E95CFE4F80818111F1CF9A
:100A000089E00E94DB0080910E0190910F0190938C
:100A10001D0180931C0160911C0170911D0180E0FB
:100A200090E00E94E20720E030E44CE954E40E94A8
:100A30003F0720E030E040E450E40E940F07AB01A4
:100A4000BC01409318015093190160931A017093EF
:100A50001B01609118017091190180911A01909108
:100A60001B0107E311E022E040E00E94210A1092FE
:100A7000360107C00E94DB00809136018F5F8093B2
:100A80003601E0913601F0E0E95CFE4F8081811192
:100A9000F1CF8AE00E94DB0010921F0180911E01BD
:100AA0008F5F80931E0180911E01893109F410C06F
:100AB00080911E01823341F484EC99E09093890087
:100AC000809388005A9819C080911E018B3441F49C
:100AD00086EA9EE090938900809388005A9A0DC020
:100AE00080911E01843649F488E893E1909389004F
:100AF000809388005A9810921E017894FF91EF918C
:100B0000BF91AF919F918F917F916F915F914F9125
:100B10003F912F911F910F910F900FBE0F901F903B
:100B20001895A0E0B0E0E7E9F5E00C94D3093C01AA
:100B3000CB01EA01D3012C91223008F43EC1FB0124
:100B40003081323008F436C1243071F4343009F089
:100B500034C111962C918181281709F42EC1B0E17E
:100B60006B2EB1E07B2E29C1343009F423C1323021
:100B700091F4223009F021C128E0F301DA0101905B
:100B80000D922A95E1F7DB0111968C91F301918189
:100B90008923898311C1223009F40CC1D301129633
:100BA000ED91FC911397DB0112966D917C91139757
:100BB000D30114960D911D912D913C911797DC0155
:100BC0001496CD90DD90ED90FC901797AF01461BE9
:100BD000570BDA0157FF04C0AA27BB27A41BB50B8C
:100BE000A032B1050CF065C0141615067CF5B701EE
:100BF000A6010A2E04C076956795579547950A94E5
:100C0000D2F7812C912C5401839404C0880C991C38
:100C1000AA1CBB1CAA95D2F7B1E08B1A9108A108B7
:100C2000B1088C209D20AE20BF20C12CD12C760194
:100C3000C39481149104A104B10419F4C12CD12CE2
:100C40007601C42AD52AE62AF72A3EC0452BE1F1CF
:100C5000EA0FFB1FB901A8010A2E04C0769567951B
:100C6000579547950A94D2F7812C912C540183947F
:100C700004C0880C991CAA1CBB1CAA95D2F7A1E041
:100C80008A1A9108A108B10880229122A222B322D7
:100C900001E010E020E030E081149104A104B104EF
:100CA00019F400E010E09801042B152B262B372BAC
:100CB0000BC06E177F0724F4C12CD12C760104C021
:100CC000FB0100E010E09801D30111964C91DC018A
:100CD00011968C91481709F442C0442349F0D7017A
:100CE000C601801B910BA20BB30B8C019D0104C0AC
:100CF0000C191D092E093F0937FD04C01982FB8319
:100D0000EA830BC081E08983FB83EA8330952095D9
:100D1000109501951F4F2F4F3F4F0C831D832E833E
:100D20003F830DC0880F991FAA1FBB1F8C839D8313
:100D3000AE83BF838A819B8101979B838A838C8149
:100D40009D81AE81BF818C019D0101501109210956
:100D500031090F3F1F4F2F4F3F4320F30BC04983F3
:100D6000FB83EA830C0D1D1D2E1D3F1D0C831D836F
:100D70002E833F8383E088830C811D812E813F81F8
:100D800037FF1AC0D901C80181709927AA27BB274C
:100D90003695279517950795802B912BA22BB32B72
:100DA0008C839D83AE83BF838A819B8101969B83C5
:100DB0008A8302C03C0101C03E01C301CDB7DEB74A
:100DC000EEE00C94EF09A0E2B0E0E9EEF6E00C945E
:100DD000DF096D8F7E8F8F8F98A3298F3A8F4B8F6E
:100DE0005C8FBE016F5E7F4FCE014D960E94190948
:100DF000BE01675F7F4FCE0149960E941909AE017F
:100E00004F5F5F4FBE01675F7F4FCE0141960E94EB
:100E100091050E945808A096E2E00C94FB09A0E21C
:100E2000B0E0E5E1F7E00C94DF096D8F7E8F8F8FE6
:100E300098A3298F3A8F4B8F5C8FBE016F5E7F4FD7
:100E4000CE014D960E941909BE01675F7F4FCE010A
:100E500049960E9419098A8591E089278A87AE01FF
:100E60004F5F5F4FBE01675F7F4FCE0141960E948B
:100E700091050E945808A096E2E00C94FB09A8E1B5
:100E8000B0E0E5E4F7E00C94D9096D8B7E8B8F8B95
:100E9000988F298B3A8B4B8B5C8BBE01675F7F4FA2
:100EA000CE0145960E941909BE016F5F7F4FCE01AA
:100EB00041960E9419099985923008F475C089817C
:100EC000823008F474C02A853A8123272A87943017
:100ED00011F0923019F4981367C06CC0843039F463
:100EE0001D861E861F86188A1C861B8604C08230BB
:100EF00029F484E08987CE0109965EC08B859C85A4
:100F00002B813C81821B930B9C878B874D855E8553
:100F10006F857889CD80DE80EF80F8844C155D0583
:100F20006E057F0538F4440F551F661F771F019724
:100F30009C878B87EFE1F0E000E010E020E030E4F8
:100F400080E090E0DC014C155D056E057F0540F00A
:100F5000802B912BA22BB32B4C195D096E097F09B5
:100F60003695279517950795440F551F661F771FD0
:100F7000319749F78C019D010F77112722273327DD
:100F8000003411052105310559F487FD09C0452BB1
:100F9000462B472B29F0805C9F4FAF4FBF4F807887
:100FA0008D879E87AF87B88BCE01099605C0CE018D
:100FB000019602C080E191E00E9458086896E8E03E
:100FC0000C94F509A8E0B0E0E8EEF7E00C94D9093C
:100FD0008B019C011A82611571058105910519F437
:100FE00082E089835DC083E089834EE150E05C83C9
:100FF0004B83C901B8010E94060A019797FF39C0C7
:10100000EE27FF27E81BF90B41E050E060E070E0BD
:101010000E2E04C0440F551F661F771F0A94D2F787
:1010200041505109610971094023512362237323FF
:10103000C12CD12C7601C394452B462B472B19F498
:10104000C12CD12C760104C03695279517950795AC
:10105000EA95D2F70C291D292E293F290D831E83DD
:101060002F8338872EE130E0281B390B3C832B83FC
:1010700017C0009729F40D831E832F83388710C073
:10108000082E04C0000F111F221F331F0A94D2F72D
:101090000D831E832F833887481B590B5C834B833A
:1010A000CE0101960E9458082896E8E00C94F509B4
:1010B0000F931F93CF93FC01448155816681778103
:1010C000C1818081823020F460618FEF90E0A3C005
:1010D000843009F49BC0823009F492C04115510557
:1010E0006105710509F48FC02281338122388FEFA9
:1010F00038070CF057C0E2E8FFEFE21BF30BEA31D0
:10110000F10564F58A019B010E2E04C036952795E2
:10111000179507950A94D2F781E090E0A0E0B0E03F
:1011200004C0880F991FAA1FBB1FEA95D2F7019729
:10113000A109B10984239523A623B72341E050E0F8
:1011400060E070E0892B8A2B8B2B19F440E050E093
:10115000BA01402B512B622B732B03C040E050E0AF
:10116000BA01DB01CA018F779927AA27BB278034F0
:101170009105A105B10539F447FF09C0405C5F4FF7
:101180006F4F7F4F04C0415C5F4F6F4F7F4F81E0D7
:1011900090E041155105610520E4720748F580E0B3
:1011A00090E026C0203831058CF5DB01CA018F772D
:1011B0009927AA27BB2780349105A105B10539F4E9
:1011C00047FF09C0405C5F4F6F4F7F4F04C0415CD9
:1011D0005F4F6F4F7F4F77FD04C0C90181589F4F0C
:1011E00007C07695679557954795C90180589F4FD9
:1011F00097E076956795579547959A95D1F70BC0E7
:1012000080E090E005C080E090E005C08FEF90E0C6
:1012100040E050E0BA01982F9695C0FB97F9362F21
:1012200080FB37F9642F752F832FCF911F910F917A
:101230000895CF92DF92EF92DC01FB01CC901196E2
:10124000DC90119712968C9112973FE7E32EE822DB
:101250006E2DA60170E0982F991F9927991F13965C
:101260002C91822F880F892B90E027FB222720F9D1
:101270002183009729F5411551056105710511F488
:1012800082E027C082E89FEF9383828327E0440FA8
:10129000551F661F771F2A95D1F783E0808309C009
:1012A000440F551F661F771F828193810197938397
:1012B000828341155105610580E4780788F320C0D9
:1012C0008F3F910579F4411551056105710519F4B8
:1012D00084E0808319C0E4FE03C081E0808310C0F5
:1012E00010820EC08F5791099383828383E080839D
:1012F00087E0440F551F661F771F8A95D1F77064EA
:101300004483558366837783EF90DF90CF90089571
:10131000529A5A98219A87B1807C87B98AB1867E81
:101320008AB988B18F6388B98BB189618BB984E13F
:1013300090E00E94D00080918000826080938000C5
:101340008091810088618093810080918000806815
:1013500080938000809181008260809381008FE47F
:1013600093EC909387008093860020916F00246017
:1013700020936F0090938B0080938A008091680087
:1013800086608093680080916C008F6380936C000E
:1013900080916D00886180936D007894FFCF2F92CB
:1013A0003F924F925F926F927F928F929F92AF92F5
:1013B000BF92CF92DF92EF92FF920F931F93CF9342
:1013C000DF93CDB7DEB7CA1BDB0B0FB6F894DEBFD9
:1013D0000FBECDBF09942A88398848885F846E84FF
:1013E0007D848C849B84AA84B984C884DF80EE8049
:1013F000FD800C811B81AA81B981CE0FD11D0FB652
:10140000F894DEBF0FBECDBFED0108950E940F0A14
:1014100084FF0895CB010E940F0A805F0895AA27D8
:10142000992329F4A85F982B11F480E10895903155
:1014300018F4AD5F9295A395990FE8F78A2F992735
:101440000895EF920F931F93CF93C02F47FF02C0D1
:1014500034E101C034E0E42FFF27E7FDF095F7FF0A
:1014600003C0F195E195F109E32E022F2E2F4C2FA9
:10147000512F0E94420A8C2F912FCF911F910F91D3
:10148000EF9008956F927F929F92AF92BF92CF920A
:10149000DF92EF92FF920F931F93CF93DF93CDB71D
:1014A000DEB729970FB6F894DEBF0FBECDBF6A0135
:1014B000B22E102F0C3318F4F02EF39402C0ACE3CC
:1014C000FA2E0F2D27E0AE014F5F5F4F0E94BD0B3C
:1014D000B9812B2F2970213031F0E1FC06C0E0FEEC
:1014E00006C0A0E205C0ADE203C0ABE201C0A0E0CF
:1014F000B3FF3DC0AA2311F084E001C083E08B1547
:1015000010F4B81A01C0B12CE4FC0BC08B2DF6010D
:1015100090E202C0919381508111FCCFCB0CD11C81
:10152000B12CAA2319F0F601A1936F01E2FE0DC0C0
:101530008EE4D6018C9391E411969C9311971296A8
:101540008C93B3E0CB0ED11C09C08EE6F6018083EC
:1015500091E691838283F3E0CF0ED11C8B2DF601AF
:1015600090E202C0919381508111FCCF40C0B2FF44
:1015700045C0AA2311F084E001C083E08B1510F46C
:10158000B81A01C0B12CE4FC0BC08B2DF60190E21F
:1015900002C0919381508111FCCFCB0CD11CB12C96
:1015A000AA2319F0F601A1936F01E2FE0EC089E4AF
:1015B000D6018C938EE411968C93119786E4129643
:1015C0008C93B3E0CB0ED11C0AC089E6F601808370
:1015D0008EE6818386E68283F3E0CF0ED11C8B2DCD
:1015E000F60190E202C0919381508111FCCFF60187
:1015F000EB0DF11D10822EEF3FEFAAC001E0A1110B
:1016000001C000E0202F30E01816190624F4AC01C8
:101610004F5F5F4F02C041E050E0420F531F112364
:1016200029F0612F70E06F5F7F4F02C060E070E0D3
:10163000460F571F6B2D70E04617570714F4B41A66
:1016400001C0B12C3E2D3071E4FC0DC0E3FC0BC099
:101650002B2DF60140E202C0419321502111FCCF15
:10166000CB0CD11CB12C002319F0F601A1936F0112
:1016700031110BC02B2DF60130E302C03193215004
:101680002111FCCFCB0CD11CB12CF80E3A81F0E12A
:10169000AF2EAB22B4FF03C0313309F4FA941F1408
:1016A0002CF42F2D293018F028E001C021E0AC01E6
:1016B00097FF02C040E050E060E070E0EEE29E2E56
:1016C0003C01621A71087C01E41AF50AFE013196A8
:1016D000EE0DFF1D012F10E01195019511094F3FEF
:1016E0002FEF520719F4D6019D926D0184179507CB
:1016F00054F0641675063CF47F01E60EF71ED70120
:1017000011962C9101C020E3415051096F5F7F4F2A
:101710004017510724F0D6012D936D01E0CF4817F3
:10172000590739F4363320F4353319F4A11001C0C8
:1017300021E3F60121938B2DDF0190E202C09D93FE
:1017400081508111FCCFEB0DF11D108220E030E0C3
:10175000C90129960FB6F894DEBF0FBECDBFDF9149
:10176000CF911F910F91FF90EF90DF90CF90BF909E
:10177000AF909F907F906F900895283008F027E0F9
:101780003327DA01990F311D87FD916000966105BD
:10179000710539F432602E5F3D9330E32A95E1F70D
:1017A00008959F3F30F080387105610509F03C5F76
:1017B0003C5F3D93913008F08068911DDF93CF939B
:1017C0001F930F93FF92EF92192F987F9695E92F11
:1017D00096959695E90FFF27EE53FF4F99273327EC
:1017E000EE24FF24A701E70105900894079428F44C
:1017F000360FE71EF81E491F511D660F771F881F01
:10180000991F0694A1F70590079428F4E70EF81E97
:10181000491F561FC11D770F881F991F661F069409
:10182000A1F70590079428F4F80E491F561FC71F0B
:10183000D11D880F991F661F771F0694A1F7059089
:10184000079420F4490F561FC71FD81F990F661F12
:10185000771F881F0694A9F784911095177041F09F
:10186000D695C79557954795F794E7941A95C1F77C
:10187000E8E6F0E0689415901591359165919591A1
:1018800005907FE27395E118F10A430B560BC90BE3
:10189000D009C0F7E10CF11E431F561FC91FD01D10
:1018A0007EF4703311F48A95E6CFE894015030F05D
:1018B000080F0AF40027021708F4202F2395022F9F
:1018C0007A3328F079E37D932A95E9F710C07D9368
:1018D0002A9589F6069497956795379517951794E5
:1018E000E118F10A430B560BC90BD00998F0239568
:1018F0007E9173957A3308F070E37C932013B8F7E8
:101900007E9170617D9330F0839571E37D9370E3F8
:101910002A95E1F71124EF90FF900F911F91CF913D
:0E192000DF91992787FD90950895F894FFCFE9
:10192E00A60EA60EA60EA60EA60EA60EA60EA60E09
:08193E000000000000000000A1
:00000001FF
