:100000000C9434000C943E000C943E000C943E0082
:100010000C943E000C943E000C943E000C943E0068
:100020000C943E000C943E000C943E000C943E0058
:100030000C943E000C943E000C943E000C943E0048
:100040000C943E000C943E000C943E000C943E0038
:100050000C943E000C943E000C943E000C943E0028
:100060000C943E000C943E0011241FBECFEFD8E04C
:10007000DEBFCDBF0E9452000C9473000C940000B0
:100080009093C5008093C40088E18093C1008EE006
:100090008093C20008959091C00095FFFCCF80939B
:1000A000C6000895529A5A988FEF87B918B884E11C
:1000B00090E00E9440008FEF5A9A88B92FE33BE40A
:1000C0009CE4215030409040E1F700C000005A9875
:1000D00018B82FE736E998E9215030409040E1F711
:0A00E00000C00000E9CFF894FFCF44
:00000001FF
