:100000000C9434000C943E000C943E000C943E0082
:100010000C943E000C943E000C943E000C943E0068
:100020000C943E000C943E000C943E000C943E0058
:100030000C943E000C943E000C943E000C943E0048
:100040000C943E000C943E000C943E000C943E0038
:100050000C943E000C943E000C943E000C943E0028
:100060000C943E000C943E0011241FBECFEFD8E04C
:10007000DEBFCDBF0E9452000C9488000C9400009B
:100080009093C5008093C40088E18093C1008EE006
:100090008093C20008959091C00095FFFCCF80939B
:1000A000C6000895529A5A988FEF87B918B884E11C
:1000B00090E00E94400097E088E35A9A98B92FE7B1
:1000C0003DE84BE5215030404040E1F700C00000E2
:1000D00018B85A982FE33BE44CE42150304040409C
:1000E000E1F700C0000088B92FE73DE84BE521505B
:1000F00030404040E1F700C0000018B82FE73DE86D
:100100004BE5215030404040E1F700C00000D5CF22
:04011000F894FFCF91
:00000001FF
